:020000041000EA
:1000000000B5324B212058609868022188439860DF
:10001000D860186158612E4B002199600221596106
:100020000121F02299502B49196001219960352056
:1000300000F044F80222904214D00621196600F024
:1000400034F8196E01211966002018661A6600F04E
:100050002CF8196E196E196E052000F02FF8012189
:100060000842F9D1002199601B49196000215960AB
:100070001A491B48016001219960EB211966A021F2
:10008000196600F012F800219960164914480160C1
:100090000121996001BC002800D000471248134993
:1000A000086003C880F30888084703B5996A0420EC
:1000B0000142FBD001200142F8D103BD02B5186610
:1000C0001866FFF7F2FF186E186E02BD00000240BE
:1000D000000000180000070000035F00212200005C
:1000E000F4000018222000A00001001008ED00E03C
:1000F00000000000000000000000000074B24E7A12
:1001000000200420F7010010C3010010C5010010F9
:10011000C1010010C1010010C1010010C101001097
:10012000C1010010C1010010C1010010C701001081
:10013000C1010010C10100101D940210CB0100107C
:10014000CD010010CD010010CD010010CD01001037
:10015000CD010010CD010010CD010010CD01001027
:10016000CD010010CD010010CD010010CD01001017
:10017000CD010010CD010010CD010010CD01001007
:10018000CD010010CD010010CD010010CD010010F7
:10019000CD010010CD010010CD010010CD010010E7
:1001A000CD010010CD010010CD010010CD010010D7
:1001B000CD010010CD010010CD010010CD010010C7
:1001C00000BE00BE00BE00BE00BE00BE00F04BF888
:1001D000103800BEF2EB88710C60041070600410DF
:1001E0003402001090A31AE700202149086006C8D5
:1001F00081F3088810471F48006800282FD10DA4FC
:100200000ECC002902D000F012F8F9E71A491B4A77
:10021000002000E001C19142FCD1194988471949E9
:1002200088471949884700BEFDE701C901C29A42C3
:10023000FBD3704770600410C00000204C640020A5
:10024000FCC304100000042000000420FCC30410C0
:1002500000100420001004200000000070470B482C
:100260002CF023FB0047EFF30580C0B2704700007D
:1002700008ED00E0000000D050640020148B032043
:1002800099E80210B98A021065E902105756000079
:1002900006005250ABB36053455F04100600525045
:1002A000861C03022DF60310060052505422A29D14
:1002B000505F041005005250DE65F468FCC3041062
:1002C000F8B5C0460448054B10B5834203D0044B33
:1002D000002B00D0984710BD4C6400204C640020D7
:1002E0000000000006480749091A8B10C90FC918F9
:1002F00010B5491003D0044B002B00D0984710BD17
:100300004C6400204C6400200000000010B5074C35
:100310002378002B09D1FFF7D5FF054B002B02D026
:10032000044800E000BF0123237010BD5065002089
:100330000000000010340310054B10B5002B03D053
:100340000449054800E000BFFFF7CCFF10BDC046E0
:10035000000000005465002010340310030020B595
:10036000500C1500520892B2002904D0E90702D4BB
:100370000B4817F01BFD904206D198420FD00200A7
:100380000849094816F046FD984204D9C21A07499F
:10039000054816F03FFD9A4201D20549F1E720BD1C
:1003A000103403103834031008660310713403103E
:1003B000A3340310F0B50024160087B00C9D039001
:1003C0000491059302940194059B9C4206D1019BE4
:1003D000039A93423ED2244817F0E8FC039B9C42C8
:1003E00013D26B889B05F6D4019B049A01330193C9
:1003F000A300D058FF226B88A7001340012B22D105
:100400000DF0A8F80D9BD85515E00223298800228D
:10041000C9003000194309F009FA00280ED16B8891
:10042000DB0504D52A881149114816F0F3FC0D9A12
:100430006968A300D15001340835C5E7029B4068C4
:1004400001330293D6E7022B01D10CF003FF0D9B81
:10045000D851F0E73368029ADB08934201D9054886
:10046000BAE707B0F0BDC046E9340310D234031038
:10047000086603100A35031070B515001E0004004D
:1004800086B08200AA1803A809F0A8F90B9B2900DE
:1004900001930A9B2000009303AA3300FFF78AFF11
:1004A00006B070BD10B5014817F0A2FC2835031046
:1004B00010B504000161880009F04AF9606110BDBF
:1004C00010B50400002902D0C06809F075F9606910
:1004D00009F072F910BD70B504000D0001290BDCA4
:1004E00001210369494240699A0030F0C1FA0023B2
:1004F00025706370636070BD406809F029F9636816
:10050000E060A360F3E730B5030044780020844244
:1005100008D11D7820005A68022D01D1D8688018B2
:100520008918596030BD002343700378012B03D82C
:10053000426843698900CA50704742684B1E9B1845
:10054000494219404160704770B50C001500FFF733
:10055000DAFF0419002803D170BD05702D0A01309F
:10056000A042FAD1F8E710B50C000221FFF7CBFF4B
:10057000002802D00470240A447010BDF8B50500AC
:1005800003290DD80024104B5F5CB5210902280017
:100590003943FFF7E8FF261E0DD1AF61EC61F8BDCE
:1005A0000123023999430C00FE27EEE72800074992
:1005B000FFF7D9FF7F3E7F2EF8D805492800314349
:1005C000FFF7D1FFE9E7C046A2350310FFB00000F6
:1005D00080B0000070B5C5690400002D07D07F2DE4
:1005E0000DD8B021090220002943FFF7BCFFBD212F
:1005F000A369090220001943FFF7B5FF70BD200071
:100600000249FFF7B0FF7F3DE9E7C0467FB0000039
:10061000F7B5FF270B020E00111239400193194361
:1006200080239B01194305001400FFF79CFFF10094
:100630000E438021890028003143FFF794FFC02139
:10064000019B3C401C43890128002143FFF78BFF9D
:10065000F7BD70B50D0004211400FFF754FF00280A
:1006600005D0057084702D0A240A4570C47070BDD1
:1006700010B5DB0011431943FFF775FF10BD10B52E
:10068000072A09D8D20007290CD80A438C21C901AE
:100690001143FFF768FF10BD13004022083BDB0049
:1006A0001A43F0E7083911438022EEE7F7B51F003F
:1006B0001600089A05000C009740FF2F0DD8B14294
:1006C00002D03200FFF7DBFFC0212402274389015B
:1006D00039432800FFF747FFF7BDCA000092190011
:1006E000FF22914318D1B4421ED021020B43802136
:1006F00089011943FFF737FF089BE1009B01214364
:1007000019432800FFF72FFFB1012143C024009BAC
:10071000640119432143DCE7B44205D021003A00CB
:10072000FFF776FFA101F0E7072601216640B140FF
:100730000191B421019B090219432800FFF713FF1F
:100740003A0031002800FFF763FFB1012143C024C4
:10075000009B6401194321432800FFF704FFBC21DB
:10076000019B09021943B4E74369890070B5CC586D
:10077000E021050043680902E41A043C23055B0DEF
:100780001943FFF7F0FE2B780120022B08D1E40A71
:10079000E302002C04D0802212019B1858425841D9
:1007A00070BDF8B5050000200F0083421AD16B69B7
:1007B0009200D4586B68FF26E41AD023043C6110E1
:1007C00031403F021B02394328001943FFF7CBFE9B
:1007D0002B780120022B05D1B44303D00134FF3420
:1007E00060426041F8BD4369F822890070B5CC5879
:1007F000F021050043681202E41A043C63109BB226
:100800001A4363025B0D09021943FFF722FF2B789D
:100810000120022B08D1A40DA305002C04D08022B6
:10082000D2039B185842584170BD0000F8B5476884
:1008300004000E001500BB0703D5BF210902FFF716
:1008400092FE90213602C90131432000FFF78BFE52
:1008500020000649FFF787FEA9B22000FFF783FEBC
:100860002000290CFFF77FFE3800F8BD01E00000F2
:10087000F7B506000C00170007290AD8FF239A4392
:1008800007D10C028021274389013943FFF76BFE12
:10089000F7BDFB17FD185D4028002EF089F80023F6
:1008A000019000939F4203D028002EF087F800901B
:1008B000009A019B94466344172B1AD91541E9B25B
:1008C000250229438025AD0130002943FFF74BFE67
:1008D000009BE1009801214301433000FFF743FEF4
:1008E000002FD5DA2300220030000A49FFF7C0FEAE
:1008F000CEE72B0C05D12A0021003000FFF788FE3F
:10090000EEE7002F00DA6D422A0021003000FFF7E9
:100910008DFFBDE74042000010B50B0011000278CA
:10092000012A06D9FF221C00944302D0054817F083
:100930005FFA9022DBB20902194312021143FFF75A
:1009400012FE10BD6A35031010B50378012B06D9CD
:10095000FF2314009C4302D0054817F049FAD2B295
:1009600009021143982212021143FFF7FCFD10BD4A
:100970006A350310D2B209021143A82210B512023F
:100980001143FFF7F0FD10BD43699200D358426850
:1009900070B59B1A01221A430C3A0C000500FFF7B0
:1009A00037FEB2212200280023000902FFF760FE73
:1009B000802321011940793B1C400C430249280047
:1009C0002143FFF7D0FD70BD7844000037B5040027
:1009D0000D00072914D8072A12D81F2B0AD8D100D6
:1009E000D02229439B011943D20111432000FFF774
:1009F000BAFD37BD02211F3B00912900FFF756FECB
:100A0000E9000D4301492943F0E7C046C06F0000EB
:100A10004369890010B5CC584368E11A0439CB0A00
:100A2000DB02621C0CD0CA1C0ADA0E4A934215D1B2
:100A3000E0230905490D1B021943FFF794FD10BD82
:100A4000002BF5D0074A9342F2D0BF210902FFF7ED
:100A50008AFD631CF3D0044817F0CAF9002BF4D1C7
:100A6000E6E7C04600F8FFFF8C35031070B50400C0
:100A7000930015004269985863680A02C31A043B40
:100A8000411C11D0D91C0FDAFF211E000D488E43E6
:100A9000864209D15B101940D02311431B0220006C
:100AA0001943FFF760FD70BD802149004A40D02105
:100AB000090220001143FFF756FD29002000FFF72F
:100AC000A7FFF0E700FFFFFF043A52100902D2B27D
:100AD0000A43D02110B509021143FFF744FD10BDB0
:100AE000E02310B5043909051B02490D1943FFF72E
:100AF0003AFD10BD70B514000B000722210005005F
:100B0000FFF764FF8F21E400C90128002143FFF7AC
:100B10002AFD70BD73B50B0069464C1D21007F2670
:100B20001500013C35402570D209F9D1091B9847C1
:100B300000280AD080260200230001AD7642AB4295
:100B400004D16A4612791B1BC25473BD1978013354
:100B5000314311700132F2E7030030B502687F249F
:100B600000201178C0010D0049B225400132284310
:100B70000029F6DB1A6030BD07B5019001A8FFF728
:100B8000EBFF0EBD037801307F2BFBD870470000D0
:100B9000F0B593B00A930368099204938389070020
:100BA000089343680C005A1C426003221B780420FF
:100BB0001A400092002201211600844602920192FE
:100BC00078685BB2451C002B1DDB062200233F2505
:100BD000944607930B937A680120511C7960127830
:100BE0001100014099400798084307906046584318
:100BF0005110294081400B9852B208430B90002AB3
:100C00001BDA0133E7E77D600378009D9811084007
:100C1000904006436046184090400543D810084075
:100C200090400095019D05431800084090400195B3
:100C3000029D013205430295C2E70021BB68F9819C
:100C4000059304330393089B03989B001A000693B3
:100C50002FF00EFF009A089B9B1A019A0D939D1A84
:100C6000013D039BAD005D190423009A3340A2426D
:100C700000D374E0002B04D123009949994816F061
:100C8000C9F82B1F0C93009B99000A9B5918009BD5
:100C9000E01A13F0F3FC009B28600C9D0A9A05995A
:100CA00006989B0009189B18934200D080E0082307
:100CB000099A33400E931A430223002A00D1F4E02C
:100CC00032001A400F9200220C921E4204D0099862
:100CD0000EF058F80C9028600A9BA4001C19002301
:100CE0000A930A9B099A934266D10D9B04999C0032
:100CF000039B1A19029B03339B00CD180021029815
:100D0000884200D095E003980C3B8446D218069B9D
:100D100063441900914200D994E07868FFF732FFEC
:100D200000251190009BAB4200D095E00025059B6B
:100D30001C19019BAB4200D094E07A680B9B94464F
:100D400063441D001E00079B5B190093009BB34288
:100D500000D0B8E0079BED187D6013B0F0BD002B0C
:100D600002D0614B043D6B600823099A3340134362
:100D700014D1009B029A9A1AA24200D97CE7A44699
:100D8000029B009A1B199B1A049A9B000699D31880
:100D9000059A5018009A0433624501D123007DE77B
:100DA00062469100DA684942425001229444F1E7D8
:100DB00001CA0439486077E77B6800261800119360
:100DC000FFF7E0FE25681190009B019A9B18B34243
:100DD00005D80F9B002B26D14449EA0817E011A83B
:100DE000FFF7BAFE0222049B40005B689B68C35A6F
:100DF000DB0013439D4214D1089B013B9E1B964090
:100E0000039B9E193368002B04D03949EA08354802
:100E100016F000F8636833600A9B083401330A93C4
:100E20005FE70136D0E7626821680C980EF021F880
:100E3000F2E788001658002E02D14642AE591650ED
:100E400001315CE70432131F1B68002B00D061E7FF
:100E50008A1A92102749DAE71198FFF793FE0135B5
:100E600011905FE711A8FFF777FE2268002A16D1DC
:100E7000049B40005B689B68C65A0E9B002B11D0F8
:100E80000223F1001943029B049804339B00185875
:100E9000043008F0CBFC002804D0436823600135FF
:100EA000043C46E732001449B1E7019A002A02D017
:100EB000124816F07BFF1E4200D13EE701980DF06C
:100EC00061FF286039E7089B3478013B1C1B039BBA
:100ED000A4001C1920680DF053F90136206035E795
:100EE0003834031008660310D47E0310D535031080
:100EF000A6350310F63503102836031058360310B4
:100F000010B50468E4684460040010348460FFF79E
:100F10003FFE10BD10B5040010348460FFF738FEAA
:100F200010BD000010B5402834D02DD802239843BE
:100F30003C2829D1532922D8412925D942390800F2
:100F4000112921D832F0FCF95920202020205615F3
:100F5000202015202015152320150F2814D832F035
:100F6000EFF94C131613081349081313081313133E
:100F7000131601230420002A00D0136010BD62392B
:100F8000CBB208000F2BE8D91D4816F043FD012312
:100F90000820F0E7532918D8412904D80123180064
:100FA0009942E8D0F0E7423908001129ECD832F034
:100FB0009FF924EBEBEBEBEB1F09EBEB09EBEB09F8
:100FC000091DEB0904231800D5E76239CBB20800EC
:100FD0000F2BD9D80F28D7D832F08AF90FD608D6D8
:100FE000F4D60AF4D6D6F4D6D6D6D6080823EAE73D
:100FF0000223E8E701230220BDE70123E3E7C0461F
:101000007F36031010B5512812D8412803D8012883
:1010100023D000231DE042380F28FAD832F068F9B7
:101020001DF9F9F9F9F92225F9F925F9F9444731BA
:101030006238C3B20F2BECD80F28EAD832F058F937
:1010400008E92DE928E90F37E9E937E9E9E9E91A7B
:101050008B5601205B0018430BE08B5CF9E75200D4
:10106000535EF6E75200535AF3E7920050580FF0E0
:10107000BDFA10BDD2008A18106851680FF020FA2E
:10108000F7E7D2008A18106851680FF034FAF0E7D9
:10109000920050580EF058FAEBE7D2008A18106808
:1010A00051682DF0F3FFF5E792005058E1E7920008
:1010B00050580FF014FADCE7F7B507000C000126D2
:1010C000002A02D1421E9B18023E00200021002C63
:1010D00006D0002200259A56D40F00216042A94173
:1010E000002211E0040E00940C0201940402250079
:1010F0001C780132A4462C0065462C432000009D3C
:10110000019C9B1925432900BA42EBD103B0F0BDE5
:10111000F0B585B0019203AA04000D001F001E68FF
:10112000FFF700FF402C09D1039B019A043CB61A3B
:101130005A1EB2185E42019B16409E195A213E3C2F
:1011400062426241A942894133183B60D2B2330006
:101150004942FFF7B1FF06000F004F2D07D0532D76
:1011600007D132F025F90100300011F05DFC05B027
:10117000F0BD662D03D0642D04D12DF087FF0EF055
:10118000E3F9F4E75A2D13D980220023D2059219EE
:101190007B4130001100002B06D180231B069942B1
:1011A00002D20FF09CF9E2E739000FF089F9DEE78F
:1011B000002906D18023DB05984202D20FF016FAEF
:1011C000D5E739000FF097F9D1E713B50400019383
:1011D0001000002904D1220001A92FF04FFC13BDFB
:1011E00001AB1B191419A042F9D0013B1A78027007
:1011F0000130F8E7F0B589B01F000E9B140005AA76
:101200001D6801900291FFF78DFE019B0600402BA7
:1012100008D1059BED1B5A1EAA185D423C231540C0
:101220007D1901930E9AAB191360019B3E3B1F0081
:1012300003937B425F41029BFFB2642B12D0662B6B
:101240000BD04F2B29D13000042E00D904202300CD
:101250002A003900FFF7B9FF2BE020000CF074F8EA
:101260000400F0E720000CF06FF82EF03BFE08AA17
:1012700006900791BB00D318083B2A001B68390071
:101280000420FFF7A2FF039B04355A1E934108AACE
:101290009B00D318083B1C68D5E7A3070BD10F4B65
:1012A00022689A4207D12B003200390020000FF04B
:1012B000B8F809B0F0BD20000BF0CCFF0400042EFC
:1012C000C1D9C11732002800C9B22FF0D1FB019B50
:1012D0003E2BB8D1331FED18B5E7C046546C031050
:1012E00070B50C00712807D8612806D801281DD0D8
:1012F0004238C1B20F290DD970BD62380F28FBD812
:1013000031F0F6FF14FA25FA1FFA162DFAFA2DFA23
:10131000FAFAFA190F28EFD831F0EAFF08EEEEEEEC
:10132000EEEE0A21EEEE21EEEEEE210DA354E3E700
:1013300052001353E0E7D200A4182360DB17636068
:10134000DAE7180095002EF05DFD6051D4E7D20079
:1013500018008C182DF052FE20606160CCE79200DE
:101360001351C9E7F7B506000F0014001D006428EB
:101370000DD0662804D04F2813D19400E35105E026
:10138000940018000F190BF0DFFF3860F7BDD40090
:1013900018000F190BF0D8FF2EF0A4FD386079600B
:1013A000F4E703232A001A4001921D4211D10E4B8B
:1013B0002A689A420DD10100019A4020FFF7B2FD40
:1013C00023004343020001992800FB180FF029F87D
:1013D000DCE728000BF03EFF22000300390030005C
:1013E000FFF77EFFD2E7C046546C031073B50C00C4
:1013F00001A9206811F0B2FE0500606811F080FEBE
:1014000029000023019A08F071F90500A06811F085
:1014100077FE512807D00D4B984213D0502813D097
:101420000B4816F0F7FA01260A4908200BF07DFE5A
:1014300000230400310028001A0015F0F3FD60605D
:10144000200076BD0026EFE70226EDE7D902000076
:101450008C360310D0360310D0231B061B68F0B562
:1014600015003B4A9B009B588FB01A690192DA68BD
:10147000009201281BD94C68062C15D0A20710D168
:10148000344A266896420CD12600022811D08A6878
:10149000062A0ED0900704D12E48176816008742FE
:1014A00007D0002016F082FC009E019CEDE7009E14
:1014B000019C03220F68174230D1274938688842BF
:1014C0002CD11C61DE607B68134205D1234A196868
:1014D000914201D15B685C6002A80BF0EDFDD02465
:1014E0001B4E240600280FD1786815F093FD0500E7
:1014F0000BF0D6FD2368019A9B00F3581A61009AFD
:10150000DA6028000FB0F0BD2368019A9B00F35801
:1015100003981A61009ADA600BF0E2FD01223800AC
:1015200002A90CF019F9002D0AD1029808F0EBF885
:10153000013529003300220015F074FD0500E0E7B5
:101540000023039A0299EE2008F0D0F8F1E7C04694
:1015500044880320585F0310D03603102868031016
:1015600010B50222FFF778FF10BD10B50122FFF77A
:1015700073FF10BD10B50022FFF76EFF10BD000015
:10158000F0B587B0002806D15A495B4809F02AFF18
:10159000062007B0F0BD0E68584B9E4264D1002172
:1015A00008000FF02CFC002405000390544B5A68EF
:1015B0000192944219D3039F524E3578002D22D1C7
:1015C000514A03A901200FF015FB039805AA04A9AD
:1015D0000FF02CFC049B03339B080193019B464EA8
:1015E000AB421FD130004949D0E79B680193019A73
:1015F000E3009958002904D0042902D028000FF0F4
:1016000005FA0134D2E7300031F0D2FEC11E0400E9
:10161000300011F009FA0134010038000FF0F6F93A
:101620003619CAE72F00059ABB00985811F07EFDC5
:101630000100300009F0D6FE019BFF18049B9F4279
:101640000CD212231C1A002C06DD013CEBD3300017
:101650002F4909F0C7FEF8E71234F4E730002D49AE
:1016600009F0C0FE0135B9E730000BF065FD04005C
:10167000214D2949280009F0B5FE002130000BF06A
:1016800089FD2800E28825490AF03EFA244B9C4255
:1016900026D174680434002663689E4200D377E73D
:1016A000A268F300D3181F68002F17D0022F15D09F
:1016B0005B681C492800019309F094FE0021380062
:1016C0000BF068FD1849280009F08CFE00210198F4
:1016D0000BF060FD28000F4909F084FE0136DBE7BE
:1016E000124B9C4200D13400A36B1C1D002BD2D1A5
:1016F0004EE7C0467EED0310245303104213000052
:10170000A06E0310642A0410405F03100C3703100E
:1017100040D90310A6DE031030370310383703100A
:101720009C6F03103FD9031048370310E481031066
:1017300010B508490822040031F032FE01002000F3
:10174000002904D10A00083007F04AFB10BD1CF044
:1017500007FEFBE75C37031010B5040017F0A9FA89
:10176000FFF7E6FF02280DD063686D22991E200066
:1017700017F00AFB200017F09CFAFFF7D9FF0023AF
:10178000022800D10223180010BD000010B504008B
:1017900017F08FFAFFF7CCFF012806D0200003498D
:1017A00017F0E6FA2000FFF7D7FF10BDEFFD03109A
:1017B000F0B504008FB018000E00170014F0A8FE5A
:1017C000D0250222C0000243B72120002D0615F0CB
:1017D0008FFD2B686268144C9B001B5902A8196985
:1017E0001A610091D968DA6001910BF065FC021E64
:1017F00010D13900300003F0A5FF15F00BFC0BF001
:101800004FFC2B68009A9B001B591A61019ADA6001
:101810000FB0F0BD2B68009A9B001B5903981A610A
:10182000019ADA600BF05CFC44880320F0B50400F8
:1018300085B008000E0017F03CFA08221F49050089
:1018400031F0AEFD002817D12F0008376A46380066
:1018500001A907F0C5FA019B022B0DD100992300C5
:101860000A00083321CA21C33B00220089682000F6
:10187000FFF79EFF05B0F0BD7368EB18033B1B78C4
:101880006D2B08D12200290002A814F009FD2B00BD
:10189000029A0399EBE7280007F035FF02220500C2
:1018A0000368B721DB0020001A4315F021FD6268B0
:1018B00001211300280015F0B5FBDBE75C370310AE
:1018C000F0B5D026360633682F4D9B0089B05B59A2
:1018D00000AF040039611869BA21FA600DF03AFAD4
:1018E000336878619B005B590022186927490430EE
:1018F00007F09CFF1C230600F918786911F02EFCF4
:10190000FB690100C318701E8641A41B002C05D181
:101910008B420CD11E491F4815F072FA8B42F7D941
:10192000013B1A782E3A50424241A41AEEE76A4629
:101930005E1AFB681B68F4187B61631CBB6007338D
:10194000DB08DB00D31A9D466D46320028002FF0DD
:1019500095F87B69002B0AD02E23AB553B69701C90
:101960001B687A69190028182FF088F8BC682100D4
:10197000280014F009FD14F0E6FDBD463B6918602F
:10198000FB681C6009B0F0BD4488032052060000CB
:101990006537031048620310F0B50300B1B0086862
:1019A000032B0AD9CA680592042B2BD00B695C1053
:1019B000002B05DA002016F02DF8062300240593ED
:1019C00007A911F0CBFB0890002C04D0200007AA37
:1019D00008A9FFF775FF079B002BEBD00025012618
:1019E000802110AA0CA817F007F901950395079B11
:1019F000B34209D2059B062B01D1039B01930198A9
:101A000031B0F0BD0024DBE70898B34202D0835D1B
:101A10002E2B55D1310014F0B7FC089B0700711B29
:101A2000581914F0B1FC049038000FF0F9FB019B39
:101A30000400002B00D084E04E480AAA09A90FF048
:101A4000F5F9019B0293099B002B5ED1380014F03D
:101A50007AFD01000CA817F08BF90CA8FFF796FE91
:101A6000051E56D0002C25D138000FF091FB040044
:101A7000012D7BD10D990E9810F0D6FFCA210200DE
:101A8000200015F035FC0CA83B490D9D17F070F9AE
:101A90000CA8FFF761FE022803D120000CA9FFF774
:101AA000C5FE0D95019B002B04D0220004990198DE
:101AB00015F01EFC039B002B00D10394751C0194B0
:101AC000013694E700230D93029B0A9A9B009858D5
:101AD0000BA911F043FB0B9A0100002A06D00CA8B9
:101AE00017F048F82F210CA817F0F9F8380014F077
:101AF0002AFD01000CA817F03BF90CA8FFF746FEE1
:101B0000051EAFD1029B01330293029B099A9342B7
:101B1000D8D3002CCED175230E9C0498237014F0DA
:101B200012FD0100601C31F0FBFA200014F0F0FC03
:101B30000FF050FB041EBDD13A001049104815F0BB
:101B400069F92F210CA817F0CAF8049814F0FBFCCF
:101B500001000CA817F00CF90CA8FFF717FE050000
:101B6000002CA2D1002800D07EE7E5E70CA9FFF702
:101B70005DFE97E7C08503209DFE031083370310A9
:101B80004862031007B5CA216A4615F0C1F80098EB
:101B9000431E9841C0B20EBD036A1B8B012B02D0BD
:101BA000C3685918C160704710B50400836A406A61
:101BB0009B6F9847238B226A01339BB22383918CBE
:101BC000994200D2938410BD10B50400038B013BF1
:101BD0000383836A406A0433DB6F98470121200046
:101BE000FFF7DAFF10BDF7B507000C001E00002953
:101BF0000DD003230D001D40194211D14B68D9B2FD
:101C000091420DD11B0A0193019B9D4200DBF7BD60
:101C10002300AA00083338009958B0470135F3E78C
:101C200021003800B047F2E7F0B589B004000D009C
:101C300005920693002B03D00823CA8A1343CB8254
:101C40003022059BEB83236AD98A0A43DA821B7808
:101C5000002B44D1A36A2900B0331E68059A069B65
:101C6000606AB04709B0F0BDD26AFB00D118D35CFE
:101C70000791053B012B1FD8002318E0049BEA6A5B
:101C8000DB00D018D35C062B0FD1079B5968436843
:101C900099420AD1079B606A5A88A36A1B691E0091
:101CA0000023B047039B01330393049B0133049348
:101CB000049A2B8D9342E1DC0137226A138DBB42DB
:101CC000D2DC039B002BC5D0069AA36A0092B433E2
:101CD0001F682900059B039A606AB847C2E700277E
:101CE0000397EAE7F8B50F0011001A00002304007B
:101CF00085780669837003610F4BFFF774FF636893
:101D0000002B18D1618A00290BD0228A002A08D121
:101D1000A36A606A9C331B689847A36A606A1B6C5D
:101D20009847238A39002000628AFFF77DFF6B1EE7
:101D30009D412661A570F8BD092A001010B59D22AD
:101D4000024B8968FFF74FFF10BDC0467D4600106B
:101D500010B56B22024B8968FFF745FF10BDC046E6
:101D6000AD43001010B50400836A00210833DB6F17
:101D7000406A9847A36A606A10211B6B9847A36A60
:101D8000606AC8331B680121984703212000FFF7D0
:101D900003FF10BD70B50400836A00225B6C406ACB
:101DA0009847A36A606ABC331D6800231A001900B3
:101DB000A8472000FFF7D6FF70BD10B5836A896879
:101DC00000221B6D406A0909984710BD10B5836A4F
:101DD0008968DB6B406A984710BD10B504000800A5
:101DE00011001A0016F028F9236A4360002383606B
:101DF000E369002B01D1E06110BD1A009B68002B44
:101E0000FBD19060F8E770B5437804000D00012B1A
:101E100006D1036A0A001B8B0221FFF7DEFF28614F
:101E2000AA6829694C232000FFF75CFF70BD70B5DC
:101E30001300427805000C00012A04D10A00072192
:101E4000FFF7CBFFA061A669280031004623E268B6
:101E5000FFF748FFB08A70BDF0B589B005000C00EF
:101E600000AF002902D10121116018E003231940BD
:101E70001C421CD163687961DBB2682B07D1E3682F
:101E80001B091360A4680123002CECD07B610F2395
:101E90002340022B0DD17B692109002BE4D0AB6AD2
:101EA0000022DB6A686A9847BD4609B0F0BD00238E
:101EB000ECE77B69002B02D1A3681B0913602600A5
:101EC00063681B0A5A1E9B001B193A61FB60B368CA
:101ED0000436180914F02EFB3B691B183B61FB68A4
:101EE000B342F4D16A463B6926000733DB08DB00C6
:101EF000D31A9D463B60BB60B368043618091C23A7
:101F0000F91814F02AFBFB6901001A00B8687B601D
:101F10002EF0B4FD7A68BB689446FA686344B24216
:101F200018D13969386814F02FFAAB6A0100DB6AFE
:101F30000022686A98477B69002BB5D0FB6804349F
:101F4000A342B1D0A36800221909AB6A686A1B6D6D
:101F50009847F3E75A1CBA602E221A70CCE7002982
:101F600006D0032302680B40134301D10B680360C2
:101F700070470000436870B50D0004001100002B8D
:101F800008D105480DF00CF96060200029000830E8
:101F9000FFF7E5FF70BDC04690650310F0B50D007A
:101FA0000162002142702B7891B0049204008D4AA6
:101FB000C160072B2DD1049B012B05D0036B021DA3
:101FC0001B680499C06A98476378EF68032B10D1A7
:101FD000380046210FAA0C3031F09AF9236B01002A
:101FE0009B680F9AE06A984763686883002B00D06B
:101FF000BBE03969002945D00F250D40022D3DD1A8
:102000000B09752B40D009D83E2B3FD05E2B0AD050
:10201000754A2000FFF7AEFF11B0F0BDC6220325C0
:1020200092009342F4D17B6919210EAA0DA80D9359
:1020300031F06EF900230A900893089B0A9A9342A4
:1020400026D16378012B15D9236B29005B68E06AE0
:1020500098476378042B0DD1206A0395438BE26A7D
:10206000029300230193009393680521D2680069CD
:1020700003F04FFB6368002B77D1CDE720005B4A6C
:10208000FFF778FF0225CEE70025CCE70125CAE758
:10209000089B9B000593059A0E9B9958FF224B685D
:1020A0001340082B02D1089B0133C5E7052B01D053
:1020B0004F4AAEE7CB68002BFAD1FF208B685A68F5
:1020C00002402C2AF4D19E681D3A3240022AEFD1F8
:1020D000DB680793002BEBD09B07E9D1079B5B687C
:1020E00006930340302BE3D10798A4210FAA0830B0
:1020F00031F00EF93F4B360906909E421CD1012863
:1021000005D10F210F9A13680B40022B04D03A4AD5
:102110000E9B059959587CE7E1684B1CE360049BD2
:10212000012B1ED01268236BE06ADB681209984706
:10213000002816D1314AEBE79023FF339E4217D196
:10214000069B012B04D10F9B1968069B194201D1F4
:102150002B4ADDE7049B012B03D0E06A4910FEF710
:10216000ECF96368002B9ED0079F3B68A36053E7A0
:10217000CA23FF339E4227D1069B012B07D90F9B11
:102180001E68012332001A4009921E4201D11D4AE5
:10219000BEE7049A012AE4D076100B93099B0F9AAC
:1021A0009B009A580B9B1A4201D1174AB0E7521074
:1021B0003100E06AFEF7C8F9099B01330993099AD7
:1021C000069B9342EAD1CCE7049B012BC9D0236B39
:1021D00031001B69069A9C46E06A66460F9BB04731
:1021E000BFE7C046A4370310C8370310D537031024
:1021F000FD3703103B020000203803103C38031069
:102200004C380310683803108D38031010B5024A9B
:10221000FFF7B0FE10BDC046AF3803104B6870B575
:10222000DBB20400092B10D1858A094B9D4203D1F2
:102230002000084AFFF79EFE638B228B2900D21AEA
:10224000A36A606A5B6F984770BDC58AEDE7C046B8
:10225000FFFF0000CC38031070B500260500B14226
:1022600010D00F230B40022B0ED10C0920000AF0D6
:10227000D9FE061E06DA2200054906480DF01AF8B6
:1022800000266860300070BD034AFFF773FEF9E76F
:10229000EC380310BC660310DC370310F7B50400FC
:1022A000006A0192C28A9C46170002230D001F405B
:1022B0001A4205D0324A29002000FFF75BFEF7BD25
:1022C0000F263140022917D1A2782909002A03D00C
:1022D000838B0133838303E01700438B01334383F4
:1022E00001260029EBD0002215F0E3FE03780090D0
:1022F000002B2ED0234ADEE76968019EC9B22F0069
:10230000B14208D1AB681909A378002BE0D1438B07
:1023100001334383E4E7614515D1A778002FC9D184
:102320000123A370A9680029C9D00F2603331A43DB
:102330000E40C282022E02D1D9400326D1E78B681B
:102340000F001909F9E7A968134305260909C38293
:10235000C7E70423009A13705670236A1B8B032B64
:10236000ADD1019B482BAAD1002FA8D02000F9683D
:10237000FFF772FF009A03015078184350709EE7F0
:10238000FE3803100D39031010B54F234E22FFF70E
:1023900085FF10BD10B549234822FFF77FFF10BD10
:1023A00010B5040062780B00006A012A02D115F012
:1023B00080FE10BDA16A02001031606A03F06DF961
:1023C000F7E7000070B505000C1E1AD0CB0705D545
:1023D000836A49105B6B686A984712E08B0714D0D8
:1023E0000F2309091C40022C09D0062C0AD006290B
:1023F00007D0836AC9B21B6B406A984701E0FFF7B8
:10240000CFFF70BD836A9B6BE5E7836A0968DB6871
:10241000406A98476368034ADBB29B0021002800AA
:102420009B58D9E7B83B0310F0B504000D00170026
:10243000032685B00193280030F0DAFE002805D08D
:10244000002F1DD1A36A01999B6E48E0280030F04F
:1024500077FE002802D0002F12D0F3E7002D4DD0D8
:1024600035424BD16B681A0A0292FF2213401E2B91
:102470001CD1002F1ED0029B9E007619AE420DD1BA
:1024800005B0F0BD29000122B00008310958039BB6
:1024900020007A40FFF7C8FF013610E0A9683A0033
:1024A0002000019BFFF7C0FF0435E7E71F2B19D180
:1024B000002FE0D00026E36803930133E360029B22
:1024C000013BB342DEDC029E019B0136B60071592E
:1024D0003A002000FFF7A8FFA36A03999B6A606A8D
:1024E0009847CDE7202B03D11F3BAD685F40A2E7A3
:1024F0002D2B03D1AB68002BADD1A1E72900200023
:10250000FFF760FFA36A3900DB6E019A606A9847A3
:10251000B6E70000036A70B51B780400072B05D0EE
:10252000022B03D0144AFFF725FD70BD8D68002DE6
:102530000FD1A36A10211B6B606A9847A36A606A77
:10254000C83300211B68984701212000FFF724FBB6
:10255000EBE7AB070BD16B68DBB2AF2B07D12000E9
:10256000A968FFF72FFF2000FFF7FCFBDDE729003C
:102570002000FFF727FFE1E72239031070B5437809
:1025800004001500CE68012B06D1036A0A001B8BDC
:102590002900FFF722FC70610023200071691A00F6
:1025A000FFF742FB2000F168FFF70CFF062D05D175
:1025B000A36A00210833DB6F606A9847A36A012190
:1025C000B8331D680023606A1A00A84770BD70B553
:1025D0000D000400C968FFF7F5FEA9682000FFF7A9
:1025E000F1FE70BD4B6870B5DBB204000D00342BFA
:1025F00011D18968FFF7E6FEED68AD68002D10D1B6
:10260000A36A10211B6B606A9847A36A04229C335B
:1026100002211B6819E0836A10211B6B406A9847EE
:10262000EBE70326354225D16B68DBB29A2B0FD13D
:10263000A36A10211B6B606A9847A968002910D112
:102640000422A36A02319C331B68606A984770BDFC
:102650009B2B0FD1A9682000FFF7B4FEEB689968A7
:10266000ECE72000FFF7AEFEA36A04229C333100A2
:102670001B68EAE729002000FFF7A4FEC5E710B5B4
:1026800004008968FFF79EFEA36A0021DB6C606A84
:10269000984710BDF0B58D6887B004000292002DF8
:1026A00009D1002A26D002222900836A9C331B68A4
:1026B000606A98471EE003272B003B4001933D4290
:1026C00000D08FE0FF266B683340372B14D1029B7C
:1026D000002B06D0836A02229C3301211B68406ACA
:1026E000984720002900FFF76DFEA36A606AA033B7
:1026F0001B68984707B0F0BD9F2B73D1E86843680B
:102700003340A12B5ED1A221083005AA30F000FE93
:10271000A9680390002926D0394224D14B681E4075
:10272000372E20D1029B002B06D0A36A411C9C337C
:1027300002221B68606A98472000A968FFF742FEE2
:10274000A36A606AA0331B6898470127019B039A1C
:1027500093420DD1002FCDD11900A36A03229C33DF
:102760001B680131A4E72000FFF72CFE0027EDE7EE
:102770000026019B059A9B009958B14208D003237B
:10278000194205D14E68FC331E40373E73425E410C
:102790002000FFF717FE002F10D0002E05D1164A9B
:1027A00029002000FFF7E6FBA4E7A36A606AA033D4
:1027B0001B689847019B01330193C7E7002EF9D0AE
:1027C0000E4AEDE7AB68002B06D03B4204D15B68B4
:1027D00004221E40372E00D0052229002000FFF7DA
:1027E000CDFE87E729002000FFF7ECFDA36A032256
:1027F0009C3301211B685BE73B39031058390310F8
:1028000010B50122FFF746FF10BD70B50D00C96875
:102810000400FFF7D7FDAB6802211B09DBB2342BA4
:1028200001D0403BD9B2A26A606A943213689847DB
:1028300070BDF8B54B680C00896805001F0A0026BA
:10284000FFF7C0FD0C340236B74200DCF8BD61680A
:102850002800FFF7B7FD2368686A1909AB6A2539B4
:1028600098331B68C9B298470834ECE7F7B54B6852
:102870000D001F0089681B0A040001930126FFF761
:10288000A1FD0D3FFFB2019B9E4200DBF7BD2B0077
:10289000B200083399582000FFF794FDA36A39006D
:1028A00098331B68606A98470136ECE7F7B54B68C8
:1028B0000D001B0A896800930400FFF783FD009B4D
:1028C0000027032B02D9E7687B1CE36001260C3547
:1028D0000195009A731C934221DB032A1EDDE568F3
:1028E000606A6B1CE360A36A29009B6E9847A36A29
:1028F00039009B6A606A9847A36A01219B68606AF5
:102900009847A36A606A1B6E9847A36A606ADB6D8A
:102910009847A36A29009B6A606A9847F7BD019BA4
:1029200020005968FFF74EFD009B02369E4207DAF1
:10293000A36A606A5B6D9847A36A606A5B6E98479A
:102940000F22019B606A1968A36A0A4098331B68CA
:102950000A2A14D10909CAB20621262A01D0353A19
:10296000D1B29847009B9E4205DAA36A3A00002143
:102970001B6F606A9847019B08330193A9E7FF2505
:102980004A682A40852A01D13221EAE78A6807216C
:10299000002AE6D03321E4E710B504008968FFF788
:1029A00011FDA36A032194331B68606A984710BD28
:1029B000F7B54A680E00D3B21E3B59424B410400A2
:1029C0000025C768DBB201937B1CC360130A009328
:1029D000009B9D4205DBA36A39009B6A606A9847A9
:1029E000F7BD3300AA00083399582000FFF7EAFC2E
:1029F000009B01359D42EBDAA36A3A001B6F0199F7
:102A0000606A9847E4E700000F2370B50B400400AC
:102A1000022B11D04B68DBB2492B01D04F2B02D1D6
:102A20000123A37070BD4A2BFCD0502BFAD0482B49
:102A30000DD10D69002D0CD1A378002BF2D1638A42
:102A4000002BEFD020001D4AFFF794FAEAE7CD688B
:102A5000F0E7A378002B28D0238A8E6801339BB23D
:102A60002382012B0FD1618AA36A606A002919D0E1
:102A70009C3300221B689847A36A02229C330021E2
:102A80001B68606A984729002000FFF79BFCA36A37
:102A9000606A9B6B31099847A36A606AA0331B6820
:102AA0009847BFE71B6C9847E6E7638A2900013324
:102AB00020006382FFF786FCB4E7C0467739031035
:102AC000F7B504000E00C568CF686B1C0193AB1C02
:102AD000C36000222B00B968FFF7A6FCB168200094
:102AE000FFF770FCA36A691C606A9B6E9847A36A33
:102AF0002900606A9B6A98470121A36A606A9B6803
:102B000049429847F9682000FFF75CFCA36A0199E5
:102B10009B6A606A9847F7BDF0B5436985B0039337
:102B2000C668438B771C0293B31CC360038B0400FD
:102B30008682C782438388680D0030F059FB0028E5
:102B400021D1E36801930133E360A86830F0F8FA1B
:102B5000002804D1A36A39009B6E606A9847A36A73
:102B600001999B6A606A98472000E968FFF72AFC90
:102B7000A36A39009B6A606A984701222000019B82
:102B8000A968FFF751FC039B20006361029B296940
:102B90006383FFF717FCA36A31009B6A606A98475A
:102BA00005B0F0BDF0B5C6680400731CC36088684A
:102BB00087B00D0030F01CFB021E20D1E76820001A
:102BC0007B1CE360A9683B00FFF72EFC2000E9684E
:102BD000FFF7F8FBA86830F0B3FA002820D12B6982
:102BE000002B02D16B69002B04D0A36A31009B6ECD
:102BF000606A9847A36A39009B6A606A9847280010
:102C0000712105AA103030F083FB0023039001935B
:102C1000019B039A93420AD120006969FFF7D2FB16
:102C2000A36A31009B6A606A984707B0F0BD019BB8
:102C3000059A9B009F58B86830F0DAFA021E1BD143
:102C4000E368200002930133E360B968029BFFF759
:102C5000EBFB2000F968FFF7B5FBB86830F070FABD
:102C60000028DDD1A36A31009B6E606A9847A36A91
:102C700002999B6A606A9847019B0133C7E770B568
:102C80008D680400002D06D12900836AC4331B68B7
:102C9000606A984770BDAB070FD16B68DBB25E2BE3
:102CA0000BD1A968FFF78EFBE9682000FFF78AFBCC
:102CB000A36A0221C4331B68EAE729002000FFF75A
:102CC00081FBA36A0121C4331B68E1E710B504004E
:102CD0008968FFF777FBA36A606ADB6D984710BDD0
:102CE000F8B505000C004B681E0AB700CF19BC42AE
:102CF00007D1AB6A31009C33686A00221B68984791
:102D0000F8BDA1682800FFF75DFB0434EFE7F8B5D4
:102D100005000E0000244B681F0ABC4210DA330085
:102D2000A200083399582800FFF74CFB6B68002B72
:102D300007D028000234A400A1590830FFF70FF98A
:102D4000F8BD0134E9E710B50400FFF7E0FFA36A1E
:102D5000222198331B68606A984710BD70B58D6852
:102D60000400002D07D101222900836A9C331B68CF
:102D7000606A984718E00322154221D16B68FF2052
:102D80001900014092291BD11B0A022B0DD1E968C1
:102D900000290AD0114208D14B680340AC2B04D162
:102DA00029002000FFF7EAFB70BD29002000FFF793
:102DB000AEFFA36A69689C3301221B68090AD7E742
:102DC00029002000FFF7FEFA0122A36A11009C33BC
:102DD0001B68CDE7F8B5E823174A5B00D758040015
:102DE0000D00002F26D1C6680122731CC3608968BC
:102DF0003300FFF719FBA36A1F2101225B69606A98
:102E00009847E96800290AD02000FFF7DBFAA36A97
:102E10003A00B8331D6801213B00606AA847A36AE5
:102E20000121C4331B68606A9847A36A31009B6A1A
:102E3000606A9847F8BDC04620850320F8B5036A4C
:102E400004001B78072B03D01B4AFFF793F8F8BD4B
:102E50008D68002D0AD1836A10211B6B406A984748
:102E6000A36A606AC0331B689847F0E703232A000F
:102E70001A401D421ED16B68DBB21B2B1AD1C668EB
:102E8000EF68731CC360B9683300FFF7CDFAA96817
:102E90002000FFF797FAA36A606AC0331B6898475F
:102EA000A36A31009B6A606A9847F9682000FFF7BF
:102EB00089FAD5E72900F9E7A5390310896810B523
:102EC000002906D1836A0A009C331B68406A984730
:102ED00010BD4B681B0A022B0CD1CB68002B09D00C
:102EE0009A0707D15B68DBB2AC2B03D10622FFF750
:102EF00045FBEDE7FFF7F4FEEAE710B50B0041787C
:102F0000026A012904D11900100002F0B6FB10BDBD
:102F1000816A406A183102F0C0FBF8E7F7B5032771
:102F200004000D00160039420CD00F230B40022B79
:102F300013D10909D30702D4FFF7DFFFF7BDFFF76D
:102F40002FFAFBE74968FF200B0003402D2B7CD0B4
:102F500009D8062B0CD02C2B13D0290020004E4A68
:102F6000FFF708F8EAE72E2B00D183E09D2BF4D180
:102F7000002EF2D12A00090A0832200000F0F8F8E9
:102F8000DCE7022A03D02000A968FFF71BFAEB68F0
:102F90000093002BE1D00323009A00991A401942B4
:102FA000DBD14B680F00D9B28E2909D11B0A17005B
:102FB0000193022E1AD1019B009A01339B009F5866
:102FC0007B68DBB2312B26D1022E14D1A36A606A52
:102FD0005B6E9847A36A0121DB6C19E0009BBA0085
:102FE000083320009958FFF7EDF90137019B013BA9
:102FF0009F42F3DBDFE72000B968FFF7E3F9A36A3C
:10300000012EE8D19B6D606A98470021A36ADB6CB2
:10301000606A984792E7322B9FD1A36A606A012EBB
:1030200009D15B6D98470022A36AB9681B6D090935
:10303000606A984782E7022E01D11B6E9847B968F3
:10304000A36A01221B6D0909F2E7AA68002A84D04D
:10305000002E82D15368190A022909D1D368002BA6
:1030600006D0980704D15B68DBB2AC2B00D174E7C3
:10307000083282E7002A00D06FE7A9680A1E00D153
:103080007BE7394203D14B6818409228E2D02A00EE
:103090000121083271E7C046BF390310F7B50400BB
:1030A0000D00C6680193B31CC360836A31009B6A3C
:1030B000406A00929847A36A771C883339001B68DE
:1030C000606A9847A96800222000FFF727FF2D6952
:1030D000002D2DD120000099FFF774F9236AA06A12
:1030E000197806291CD1C83003682900606A9847FE
:1030F00020000121FEF750FDA36A606ADB6D98474E
:10310000A36A3100606A9B6E9847A36A3900606ABF
:103110009B6A9847A36A606A8C331B689847F7BD1F
:10312000019BA4309A0005680532606AA847E7E76A
:10313000FF226B681340AD2B07D1A9683300002232
:103140002000FFF771F9ED68C2E72000E968FFF79A
:1031500039F9A36A606A08330121DB6F9847019B44
:1031600029002000009A0133FFF798FFC8E700000C
:10317000F0B5012705000E000C0085B00392019206
:103180007F42331B0293002C15D17B1C05D1AB6A07
:103190003100A8331B68686A9847B4422AD0039A62
:1031A000A300D1580022A74200D189682800FFF768
:1031B000B5FE0134F1E7019B1968002911D0032302
:1031C00019420ED1FF224B681340222B09D17B1CE0
:1031D0000CD1AB6A0299AC331B68686A621E9847CF
:1031E000029F019B013C04330193CAE72800024A75
:1031F000FEF7C0FE05B0F0BDDA390310F0B585B0BA
:1032000004001F0001910292002904D13900FFF748
:10321000D9F805B0F0BDC668731CC360029B1D6879
:10322000002D2BD003232A001A4003921D4225D1E2
:103230006B68DBB27B2B21D1A968FFF7C3F83100A3
:103240002000039AFEF7B0FC2000039AE968FFF71C
:1032500065FE029A019904323B0020000139FFF714
:10326000CDFFA36A3100DB6F606A9847200003211D
:10327000FEF792FC2000FEF7A7FCCAE72900200019
:10328000FFF7A0F8200000223100FEF78DFCA36AB2
:10329000606ADB6D9847DCE737B5050008000C0075
:1032A00001AA7A21083030F033F8E3680100019A6E
:1032B0002800FFF7A3FF37BDF0B50D000F21AB6865
:1032C00004008BB00B40022B00D001E1EB68002B17
:1032D00000D1FDE00322134200D0F9E0FF205A683C
:1032E00002402C2A00D0F3E09A681140022900D055
:1032F000EEE012097C2A00D0EAE0DA685368184050
:10330000302800D0E4E09368A23109AA08A8089305
:103310002FF0FEFF431E022B00D9D9E0099B1E6847
:10332000012800D1C7E05F68022800D114E19B6842
:103330000193DB0700D4CBE0019B5B1000D1C7E019
:10334000002E07D0B30705D17368DBB2A63B022B72
:1033500000D8BDE0002F07D0BB0705D17B68DBB2EA
:10336000A63B022B00D8B3E0AB683A0004932B696C
:1033700005936B69E56803936369A5820793638B83
:1033800006936B1CE382238B63832B1DE360012375
:103390001A4002921F4203D139002000FFF712F8B1
:1033A00031002000FFF70EF8A36A606A9B6EE91CEB
:1033B0009847A36AA91C9B6A606A9847A36A606AD7
:1033C0005B6D9847002220000499FFF7A7FD2000BD
:1033D0000599FEF7F7FFA36A606A9B6A691C984724
:1033E00020000199FEF7EEFFA36A0E2198331B68B7
:1033F000606A9847A36A606A9B6AE91C9847029AC8
:10340000A36A002A5CD19B6D606A9847A36A606AD0
:103410001B6E9847A36A019A983300211B68606A63
:10342000002A00DA012100269847A36A0121DB6EF9
:10343000606AAA1C9847079B6361069B6383039B92
:10344000B3421ED0A36A606ADB6D9847029BB34209
:1034500003D1A36A606ADB6D984720000399FEF7E9
:10346000B1FFE668606A731CE360A36A31009B6E7B
:1034700098470121029B606A5940A36A01319B6809
:103480009847A36A29009B6A606A9847A36A606AA2
:10349000DB6D9847029B002B03D1A36A606ADB6D4A
:1034A0009847039B002B04D0A36A31009B6A606A93
:1034B00098470BB0F0BD032337000193060049E79E
:1034C000606A5B6D984739002000FEF77BFFA1E73B
:1034D0006369E6680293638B771C0193238B20005A
:1034E00063831F4BE7823343A382F31CE360E968E5
:1034F000FEF768FFA36A606A08330121DB6F984713
:10350000A36A3900606A9B6A9847A36A606A883335
:103510001B68B11C984700222000A968FFF7FEFC39
:1035200020002969FEF74EFFA36A3900606A9B6E8E
:103530009847A36AB11C606A9B6A9847A36A606A4D
:103540008C331B689847029B20006361019B69696B
:103550006383FEF737FFA7E703230193F0E6C04636
:103560000080FFFFF0B587B0040001910292039341
:10357000002904D10399FEF725FF07B0F0BDC66806
:10358000731C0493B31C0093331DC360029BF71C90
:103590001D68002D00D1F0E003232A001A40059297
:1035A0001D4200D0E9E06B68DBB27B2B00D0E4E089
:1035B000A968FEF707FFA36A606A5B6D9847A821B8
:1035C0002000FEF7E7FB2000059AE968FFF7A6FC5C
:1035D000022231002000FEF7E7FAA36A606A0321A5
:1035E0009B689847029A019904322000039B013995
:1035F000FFF7B8FF0321A36A606A9B6849429847B6
:10360000A36A1021606A1B6B9847A36A606A1B6EED
:103610009847A36A606A711C9B6E9847A36A310041
:10362000606A9B6A9847A36A606A5B6D9847A36A61
:103630000122606A21215B699847A36A606A983316
:1036400008211B689847A36A009A0021606ADB6E14
:103650009847A36A606A5B6D9847A36A606A5B6E6D
:103660009847A36A606A1B6E9847A36A0022A92143
:10367000606A5B6C9847A36A606A5B6E9847A36A4E
:10368000606A5B6E9847A36A606A5B6D9847A36A3D
:1036900000220A21606A1B6D9847A36A606A1B6E4C
:1036A0009847A36A606A10211B6B9847A36A03219D
:1036B000BC331D680023606A1A00A8472000FEF78B
:1036C00051FBA36A3A000021606ADB6E9847A36A47
:1036D000606ADB6D9847A36A606A10211B6B98478C
:1036E000A36A3900606A9B6E9847A36A606A0221E8
:1036F0009B689847A36A0099606A9B6A9847A36A87
:10370000606A5B6E9847A36A606A5B6E9847A36ABB
:103710000499606A9B6A9847A36A0022606AA9219B
:103720005B6C9847A36A1021606A1B6B9847A36A79
:10373000606A5B6D9847A36A606A5B6D9847A36A8D
:103740000321BC331D680023606A1A00A8472000CB
:10375000FEF708FBA36A606ADB6D98470121A36A44
:10376000606A9B6849429847A36A606A39009B6A0D
:1037700098472000FEF728FAFFE629002000FEF710
:1037800021FEA36A606A5B6D98472000A821FEF7BE
:1037900001FBA36A606ADB6D984719E7F7B5CD684E
:1037A00004000E00002D27D10378002B17D0036AE8
:1037B0001D78002D13D1CF21FEF7F2FDB168200056
:1037C000FEF700FEA36A2A00B8331E6801212B0011
:1037D000606AB047A36A606ADB6D9847D0E0B16861
:1037E0008B0700D1C4E00F230B40022B00D0C7E0B1
:1037F0002000FEF7E7FDEDE7AB0700D0C1E06B6806
:10380000DAB25B2A13D1ED68002D00D0B9E0006A6E
:103810000378072B00D0B3E0896808330B40022BF4
:1038200000D0ADE00909573A14F043FCA8E0562A4D
:1038300013D1553A8968FFF771FB2000E968FEF75C
:10384000C1FDA968A36A09093F3998331B68606AFA
:10385000C9B298470222B16886E0572A00D090E0AA
:103860001B0A5F1E01339B005959FEF7ABFD002F69
:1038700003DDA36A606A5B6D9847B168002220008F
:10388000FFF74CFB0026BE427ADA0136BE4203DA6D
:10389000A36A606A5B6D9847291DB300002220006F
:1038A000C958FFF73BFBEEE76B68FF211800019357
:1038B0000840062869D1B768002F66D0174264D146
:1038C000786803000B40062B5FD1030A0093009831
:1038D000019B1B0A834258D10300023B012B54D8A1
:1038E000BB68002B05D0134203D15B680B40222B31
:1038F0004BD0FB68002B05D09A0703D15B68DBB285
:10390000222B42D0009B022B08D03B69002B05D014
:103910009A0703D15B68DBB2222B36D02000A9685E
:10392000FEF750FD2000E968FEF74CFD009B032BDD
:1039300007D120002969FEF745FDA36A606A5B6E26
:103940009847A36A606A1B6E984700222000B968F6
:10395000FFF7E4FA00222000F968FFF7DFFA009B86
:10396000032B0DD1002239692000FFF7D7FA07E0B9
:10397000002900D13CE74B68DBB23A2B00D037E797
:10398000F7BD0322154200D18EE729002000FEF783
:1039900019FD00225FE700000023F7B5C3600300B4
:1039A00034334270016204000D0017001A70032ABC
:1039B00003D1C08E002828D1A0630026A36A390055
:1039C0002A001B68606AE686984706212000FEF7F9
:1039D000E3F86778012F01D16E84AE84EE68002E83
:1039E00017D0B30715D17368DBB23F2B11D120007C
:1039F000B168FEF7E7FCA36A606AC0331B689847AA
:103A0000A36A606A5B689847FEBD800005F0BFFE50
:103A1000D2E72B783100002B17D0072B1ED1012FB6
:103A200012D10023A37046225B4B2000F168FEF701
:103A3000DAF82B8B032B07D120003169FEF70CFC41
:103A40008301E88A1843E88271692000FEF7BAFC16
:103A5000A36A10211B6B606A9847CCE7022B1BD12D
:103A6000A36A3168DB68606A98476378012B07D1E5
:103A70000023A3704C222000484BB168FEF7B3F836
:103A80002000F168FEF79EFCEB8ADB07B3D5A36A42
:103A9000606ADB6D9847DBE7033B032B4FD8F36885
:103AA0000193012F05D104223900206A14F001FB93
:103AB0006F83A36A3168DB68606A98472B78032BB1
:103AC00024D10122A36A9C331B680021606A9847B5
:103AD0002B78062B28D1A36A606A1B6C98470121BA
:103AE0002000FEF75DFCA36A606A1B6C9847A36A1E
:103AF000606A1B6C984700232000B2680199FFF7A9
:103B0000CDFA2B78062B00D075E7A1E7042B04D162
:103B1000A36A02229C331B68D7E7052BD8D1A36A7E
:103B200003229C331B68D0E720000121FEF738FCFC
:103B3000A36A01210833DB6F606A9847DBE7012F36
:103B400004D104220A21280014F0B3FA172120001E
:103B5000FEF726FC16212000FFF7CFF9B368606A54
:103B60001909A36A9B6B98471A212000FFF7C5F932
:103B700020003169FEF726FC0A21280014F089FA9A
:103B80000278A36A042A00D163E742881D690A21EA
:103B90000023606AA8472EE79523001089230010B0
:103BA0000F2370B50B4004000D001600022B02D04D
:103BB0000B4AFEF7DFF931002000FEF703FCA36A91
:103BC000606A5B6D9847266A3378033B032B01D804
:103BD0007368236229092000FFF78FF9266270BD00
:103BE000BF390310F0B589B0059104920400A421F7
:103BF00007AA05A81E002FF08BFB00231F000390CF
:103C0000019302930093019B039A934213D1002FD7
:103C100004D0A36A02995B6B606A9847049AA36A0E
:103C2000606A002A00D177E0BC331C6831003B0099
:103C3000009AA04715E0019B079A9B009D58002D14
:103C40005ED003231D425BD1FF216B680B40A62B86
:103C50001AD1A43B1F4206D0304A29002000FEF7AB
:103C600089F909B0F0BD019B1D2B01D92C4AF4E75D
:103C70000123019A1F439340029AA9681A430292B2
:103C80002000FEF79FFB23E0A72B10D1A53B1F438D
:103C9000A36A606A1B6C9847A9682000FEF792FB34
:103CA000009B01330093019B01330193ABE7A82BE9
:103CB00026D1EA68002A0FD0A53B1A420CD15368DE
:103CC0001940AA2906D120009268A968FFF768FF69
:103CD0000136E8E7AC290DD00F23A9680B40022B71
:103CE00001D0104AB9E7A36A09099B6B606A98473B
:103CF000E968D2E7062229002000FEF73FFCE7E74B
:103D000002231F4201D0084AA7E7009B002B01D0E5
:103D1000064AA2E72900B3E7B83386E7F43903106F
:103D2000033A0310113A0310323A03104A3A0310CF
:103D300070B50D00417804001300012903D12A0059
:103D4000FEF74BF86861A36A606A9B6C9847002392
:103D50006E691A0031002000FDF766FFA36AB18A80
:103D60009B6B606A9847E968002909D003230A0021
:103D70001A40194204D14B68DBB2A32B00D11100C9
:103D8000200002230022FFF72DFFB08A70BD002320
:103D900010B51A008968FFF725FF10BDF7B50C00B4
:103DA00089680500FEF70EFBE668002E2FD07368C9
:103DB000DAB28E2A2CD0260001230C3600930F2273
:103DC000296AA368097800241A40072900D07AE0FC
:103DD000022A50D11A099A2A00D076E031684A683E
:103DE000D2B2302A00D070E08A68A24200D06CE0E3
:103DF0000A212800FEF7D4FA01212A6AD36A128D1B
:103E0000002A09D12800474A3168FEF7B3F8F7BD08
:103E10001B0A00930836D2E75878084210D0596838
:103E20002800FEF7BDFA009AAB6A022A0BD8B83315
:103E30001C68002302211A00686AA04701241AE0C6
:103E4000013A0833DCE7FF227068416811403229EB
:103E5000EDD1B46861680A40302AE8D181685B6CB2
:103E6000686A09092F3A9847A168002301222800AF
:103E7000FFF7B8FE0324009BA342C8D9631C009837
:103E80000193621CA300F158824245D2FF204A6888
:103E90000240322A40D1F3185F687B680340302B20
:103EA0003AD18968AB6A00225B6C686A0909984755
:103EB000002301222800B968FFF794FE019C013419
:103EC000D9E70024D7E7022AD5D14C22FF320024BB
:103ED0001B099342CFD1FF2133685A680A40302A28
:103EE000C9D19C68002CC6D0032322001A401C4272
:103EF000E7D1636814000B402F2BBCD1AB6A1100D3
:103F0000B8331F68686A1300B84733682200280076
:103F10009968FEF7BFFB91E72800FEF753FA01947A
:103F2000CCE7C0466B3A0310036A10B51B78040057
:103F3000072B05D0022B03D0054AFEF71BF810BD56
:103F40002000FFF72BFF2000FDF70CFFF7E7C0462E
:103F5000833A031010B5CA688968FFF721FE10BDC7
:103F600010B5036A04001A8BFFF7E2FE010020007F
:103F7000FEF7C3FF10BD10B5036A04001A8BFDF7EE
:103F800056FF01002000FEF7B8FF10BDF0B58D68A8
:103F900004006B6887B0DBB2032B09D12900FFF75F
:103FA000EAFF0123AA69D18A0B43D38207B0F0BD8F
:103FB0000121026AD28A0A4204D129005E4AFDF731
:103FC000D9FFF3E7162B00D0A8E0EB68C6681B0901
:103FD0000193331DC360E968FEF7F4F9A36A606AD0
:103FE0000022AA215B6C9847A36A606ABC331B68F5
:103FF0001F0000231A001900B84720000199FEF79E
:104000007CFF6369606A0393638B0293E3681F001C
:10401000013300933B000233E360009B0099E3828D
:10402000238BA7826383A36A9B6A9847012220009F
:10403000B118FDF7B9FD20000199FEF7B1F9200094
:10404000AC21FDF7A7FE2000A9680022FEF766FF5D
:10405000A36A00229033606AB11C1B689847A36A68
:10406000711C606A9B6A9847A36A606ACC331B68BC
:104070009847A36A606A5B6D98476621A36A01222C
:10408000606A5B69FF319847A36A606A98330821C8
:104090001B689847A36AF21C0021606ADB6E984790
:1040A000A36A606ADB6D9847A36A012290333100EE
:1040B000606A1B689847A36A606AF11C9B6A98470C
:1040C000A36A01219B68606A98472000FDF77CFD88
:1040D000A36A606AD0331B689847A36A606A9B6AC8
:1040E000B11C984720002969FEF76CF9A36A009972
:1040F000606A9B6E9847039B31006361029B606A14
:104100006383A36A9B6A984720006969FEF75AF99E
:10411000A36A39009B6A606A984747E7280005AAA6
:104120007A2108302FF0F4F8EB680100059A20009E
:10413000FFF718FA3AE7C0469C3A0310F0B50400BE
:10414000080089B005910830422106AA2FF0E0F856
:104150000027236A03901D8B0197039B9F420BD17D
:10416000059BD9684B68DBB2032B52D12A00200093
:10417000FDF75DFE05005AE0069ABB009B586C21D6
:10418000180007AA083004932FF0C2F8079B02908A
:1041900019680A09732A0ED02000FEF713F90126C8
:1041A000029B9E422AD3049BD96800290DD020008F
:1041B000FEF708F909E0029A022A08D02000294AED
:1041C000FDF7D8FE019B013301930137C5E759681C
:1041D0000B09412B0CD09D22920093420AD0224A17
:1041E000934209D09A3AFF3A9342E7D10425E9E78E
:1041F0000125E7E7029DE5E70325E3E7079AB3001A
:104200009958A36A00221B6D606A09099847013614
:10421000C6E7442B17D18E682A0031002000FDF735
:1042200006FE01230500B269D18A0B43D382002622
:10423000039B019A9B1AB3420AD829002000FEF77B
:104240005CFE09B0F0BD2A002000FFF771FD91E788
:10425000A36A0121B8331F680023606A1A00B847B7
:104260000136E5E7C23A0310330300000F23F0B52F
:104270008E6804000D0085B033400A2B07D0002E55
:1042800030D0B3072ED17368DBB2652B1CD10296F8
:104290000026652103AA02A82FF03AF80021039B0B
:1042A00080003F4AC018984214D13E4BEA689A42B7
:1042B00036D1236A1F78002F16D0290020003A4AF1
:1042C000FDF758FE05B0F0BD622B0BD1B368029329
:1042D000F668DEE71F68974202D101310433E2E756
:1042E0000331FBE70021E0E7A36A606A5B6B984754
:1042F000A36A606A05219B6B9847A36A3A009C33C6
:104300001B68606A012198473100200003AAFDF76D
:10431000A3FDA36A02223900DB6A606A9847D1E7ED
:10432000A36A606A5B6B984728006A210C3002AA76
:104330002EF0EEFF00270500A36A606AAF4211D19C
:104340009C33002229001B6898473100200003AAF3
:10435000FDF782FD0026A26A606AAE420BD1D36DE2
:104360009847AFE70299BA0052589B6B91680137A2
:1043700009099847E0E70299B3005F58BB681B0939
:1043800001930199D36A01229847F968002905D160
:1043900001992000FEF7B1FD0136DCE70909F8E7D5
:1043A000DA0500002A040000E03A031037B50400E3
:1043B0000D00836A00215B6B406A9847A36A606ABC
:1043C0001B6B102198472900200001AAFDF744FD2E
:1043D00020000199FEF791FD37BD10B50B00417823
:1043E000026A012904D11900100001F046F910BD3C
:1043F000816A406A203101F050F9F8E7F0B5040015
:104400000F001E00C56887B06B1C0593AB1CC36012
:10441000290004920122FDF7C7FB39002000FDF7B7
:10442000D1FFA36A002290331B68606A691C984719
:10443000A36A29009B6A606A9847A36A606ACC33C2
:104440001B689847E368370001930133E36000235A
:104450000093009B049A934216DB2000FDF7B4FB07
:10446000A36A606AD0331B689847A36A05999B6A60
:10447000606A984720000C99FDF7A4FFA36A019990
:104480009B6A606A984752E03B680393E368029333
:104490000133E360039B9E68009B01330093002E71
:1044A00047D1049B009A934239D10025A36A606AE0
:1044B000DB6D98472E00039B2000D968FDF782FF33
:1044C000002D19D0A36A10211B6B606A9847A36A5C
:1044D00031009B6A606A9847A36A10211B6B606A6F
:1044E000984729002000FEF708FD20002900FFF76B
:1044F00074FF2000FDF768FBA36A012290331B685C
:104500000199606A9847A36A02999B6A606A984712
:10451000A36A01219B68606A9847043799E72000E5
:104520001D4A3968FDF726FD2000FDF74DFB07B059
:10453000F0BD0325032335401E422BD1FF217368B4
:1045400032000B40762B02D1D568B6682D09A36ADC
:10455000606A5B6D984731002000FDF733FFA36A66
:10456000082198331B68606A9847A36A0021DB6EB4
:10457000029A606A9847002D97D029002000FEF724
:10458000BCFCE6680222731C31002000E360FDF7EA
:104590000BFB90E70025DAE7FD3A0310F0B5C7689A
:1045A00085B003937B1C16000D0002223900C36006
:1045B0000400FDF7F9FA002E21D1A36A03219B68BC
:1045C000606A984729002000FDF7FCFE0321A36ADA
:1045D000606A9B6849429847A36A606A10211B6B16
:1045E0009847A36A39009B6A606A984720000B9934
:1045F000FDF7E8FE2000FDF7E7FA05B0F0BD0A9BE5
:104600003200009329002000039BFFF7F7FEE3E749
:104610007FB5CE68050073680C00DBB2782B09D13A
:104620000022B3680092019313002800A168FFF7ED
:10463000B5FF7FBD742B17D1300003AA7721083056
:104640002EF066FE33690200002B07D1F368009359
:104650002800039BA168FFF7D1FEEAE79B6801935E
:10466000F3680093039BE0E7080003AA77210C306E
:104670002EF04EFE00230200E9E700000F23F7B5FD
:104680000B4005000C00022B03D10909FFF7A5FE22
:10469000F7BD002965D00327394262D1FF224B685C
:1046A00013402C2B3BD18968FDF78CFEE668002E69
:1046B00057D0310039403E4253D1FF207268330059
:1046C00010408E280AD10F00130A0193019B013B71
:1046D000BB4211DC019B01339B009B595A68D2B24B
:1046E000312A12D128009968FDF76CFEAB6A0221CD
:1046F000DB6C686A9847CBE73300BA0008332800C0
:104700009958FDF75FFE0137E0E7322A29D1996811
:10471000AB6A686A1B6D0909303A9847B8E72D2BD8
:104720001FD18C68002C1CD063681A0A0123022A4E
:104730000AD1E268002A07D03A4205D15368FF2225
:104740001340AC2B0DD0012362685E1C013B120AA2
:104750009A429DD9B300E1582800FFF78FFF33003C
:10476000F2E721002800024AFDF704FC90E7C0466A
:104770001B3B0310F0B5437804000D0085B0012BFE
:104780000BD14B68DBB20093102B08D0036A1B7867
:10479000002B04D1214AFDF7EDFB05B0F0BD280048
:1047A0006D2103AA08302EF0B3FD00270190019B74
:1047B000BB42F2D0039ABB009958206A0022090933
:1047C00013F077FC009A06000378102A10D1002B12
:1047D00002D0134A032B17D1032333707168206A68
:1047E00013F088FC002801D0032303700137DEE7B3
:1047F000002B0ED1013303700100206A13F083FCFB
:104800003378084A012BF1D129002000FDF7B2FBD3
:10481000ECE7062BEAD0044AF6E7C046333B031028
:10482000583B0310773B0310953B0310F0B5A1B044
:10483000059010201400069104F08AFFD0231B0677
:104840001B68BE4A9B009B5800211B69582243608D
:1048500007000AA82CF00CF90AAB1C7001230121F7
:104860005B4219A80F9304F0ABFF0221069B0122C3
:10487000DB00194319A804F0D9FF0123002143608C
:104880001CA80CF019FAEA23AD4A5B00D35C059A28
:10489000002112680AA8FDF7A0FA019017A800F0FD
:1048A0006FFEA84B119C1493002303901390029366
:1048B000002C02D00B9D002D20D0119C002C02D08A
:1048C0000B9B002B39D000250299039800F05FFE66
:1048D000119C0B9B002C00D13AE1002B00D1E0E0B1
:1048E000129B0CA8D968FDF73AFB129B0C9A029315
:1048F0009B8A06990B980AF017FD2CE1238B012265
:1049000021000AA8042B08D1FDF748FB0D9B029A51
:104910009A4200D20293A468CAE7FFF73DF8238DBC
:104920009D42F3D2E26AEB00D118D35C012B02D195
:10493000200013F0E8FB0135F1E70421E28A0A4286
:1049400015D0218D01394A1C11D00225E06ACA0018
:1049500082185078284225D0002B08D059681500BD
:104960008C46186842CD42C36346106053600025F0
:104970002584238D04939D421ADB00230120049A91
:104980009A4244D16568002D0AD000222B8D0893ED
:10499000130008998A4249DB00220125934275D110
:1049A000A4688BE7002BCDD10128CBD11300C9E738
:1049B000E36AEE009E192378012B04D173680A2B59
:1049C00010D10135D5E73278012B0BD9012A09D155
:1049D00003233370238B032B13D01022E38A13435A
:1049E000E38202E03378032BF4D03378042B03D036
:1049F000012273781342E4D0238C5A1C22847380E2
:104A0000DFE7706808F00EFB0128EEDCE5E7E16AFD
:104A1000DA008D188A5C052A06D16A78024203D131
:104A2000228C6A80013222840133A8E7E96AD0002F
:104A30000E18095C07960539012917D8002112E0E4
:104A4000E66AC800B4468444305C06280AD1079858
:104A5000406809906046099E4068864202D16046DF
:104A600043800133013104988842E9D1013290E753
:104A7000E06AE66AD1004018715C062902D14178EB
:104A8000294202D04188C9184180013204999142DB
:104A9000EED1628B9BB29A186283228C9B1823847E
:104AA0007EE7238B042B1BD1159B0493002B03D192
:104AB000029801F033FA159000231393224B03223E
:104AC00021000AA81693FDF769FA0B9B0493002BAB
:104AD00004D1042221000AA8FDF760FAA468F8E6D0
:104AE000023B012B24D8002D06D1029B0DAA0BA955
:104AF00017A803F0BBFE0500144B13951493022274
:104B000021000AA8FEF748FF0B9B0493002BE5D178
:104B1000032221000AA8FEF73FFF0B9B002BDDD1EB
:104B2000042221000AA8FEF737FF0028F8D0D5E7B5
:104B3000039B1393034B1493E1E7C046448803207F
:104B400020850320B83C03104C3F031000420310A3
:104B5000002B00D0C4E6019B0B9E1B690293002E24
:104B600019D0039800F01BFD002D40D115980028A6
:104B700001D001F0E8F905982EF0B2FB01988368A6
:104B8000019313F07DFA019B002BF7D10B980028BD
:104B900031D008F0A5FA199BDC0864001E9B033491
:104BA000A008C0188000049304F0D2FD03239C43A6
:104BB0000419FC601B991A9CB860A6420AD1002314
:104BC0001E998B42CDD01F989A008058FC68013303
:104BD000A050F6E70A68002A06D0042A04D04B68E1
:104BE000D2085B105B001A5201360831E5E7280055
:104BF00003F05DFEBAE73900019A029800F0A2FDC9
:104C000021B0F0BD4379012B07D08368C91803692F
:104C100081605A8C914200DD5984704770B50D0057
:104C2000002104008171FFF7EDFF6379012B03D0B0
:104C3000E26A236AAD00EA5070BD042110B5494212
:104C4000FFF7E0FF10BD10B50421FFF7DBFF10BD3B
:104C5000032110B54942FFF7D5FF10BD0300406A9C
:104C60005A794118032A02D81800596270475A6BC2
:104C70001018FAE782790300002A01D01800704763
:104C8000C06A5A794118032A01D8D962F6E79A6AAC
:104C9000D96280185A6B1018F1E710B50C00012189
:104CA000FFF7E8FF047010BD70B504001500FFF7B2
:104CB000A9FF01212000FFF7DDFF057070BD10B5D1
:104CC00053220121FFF7F0FF10BD10B5542201213E
:104CD000FFF7EAFF10BD10B557220121FFF7E4FFEF
:104CE00010BD10B558220221FFF7DEFF10BD0121D3
:104CF00010B559224942FFF7D7FF10BD10B55A220F
:104D00000021FFF7D1FF10BD10B55B220021FFF796
:104D1000CBFF10BD012110B55D224942FFF7C4FF52
:104D200010BD5E2210B5002901D003215F22FFF7DC
:104D3000BBFF10BD0A0010B5303A0021D2B2FFF718
:104D4000B3FF10BD022110B562224942FFF7ACFF4C
:104D500010BD012110B5632249420400FFF7A4FFF2
:104D60000123A37110BD0A00643210B5D2B24942CA
:104D70000400FFF799FF0123A37110BD0A0010B5CD
:104D800004006732D2B24942FFF78EFF0123226945
:104D9000D18A0B43D38210BD70B51D000400FFF70C
:104DA00083FF2A0020000249FBF7B4FE70BDC04615
:104DB000754C001070B50D0004001900C068160095
:104DC00000F02AFC3200030029002000FFF7E4FF76
:104DD00070BD10B50B0010220121FFF7EBFF10BDD5
:104DE00010B511320B00D2B20121FFF7E3FF10BD65
:104DF00010B501240B005100611A541EA241143257
:104E0000FFF7D8FF10BD0B00012110B51632D2B24A
:104E10004942FFF7CFFF10BD10B519320B00D2B2D7
:104E20000021FFF7C7FF10BDF8B5C4681D00267844
:104E30006388042E02D167689E00F5515D1C658071
:104E4000FFF7AAFFF8BD110010B52833DAB20B0046
:104E50000021FFF7A1FF10BD10B501240B002100B8
:104E6000022A00D0E11A2A32D2B2FFF795FF10BD14
:104E7000130010B503290BD004290CD00021022205
:104E8000CB189B001343C9432F22FFF785FF10BDAA
:104E900000210A00F4E70121FBE710B50B003022E6
:104EA0000139FFF779FF10BD10B513020B438918C4
:104EB0003122FFF771FF10BD0B0010B5012A07D09A
:104EC000022A0BD1012167324942FFF7EDFE10BDE6
:104ED00011001B32D2B2FFF76DFFF8E70121494202
:104EE000F7E7F8B5060017001D00FFF78BFEB47951
:104EF000002C1FD17379022B22D90223F26A5B4264
:104F00009B1A326AAD00AA589B18442F13D81A0076
:104F10000125403202DB3F2B00DC25005C1B30000A
:104F2000A91CFFF7A7FE0770002D0BD1442F00D856
:104F300040344470F8BD7F259D42AD416D42EDE7A0
:104F40000125ECE7442F02D88023DB01E4187379B4
:104F5000042B06D180231B029C4202D30123383646
:104F6000337080235B422343E41143708470E1E794
:104F700010B50B00422200210400FFF7B2FF01230D
:104F8000A37110BDF8B5174F05000C0016000F40B7
:104F9000002A19D10B040ED55921FFF77EFE5921A5
:104FA0002800FFF77AFE59212800FFF776FE5921E5
:104FB0002800FFF772FE3B00422200212800FFF785
:104FC00090FF0123AB71F8BD3B0040220021FFF7A9
:104FD00088FF7F23210A994331432800C9B2FFF794
:104FE0005CFEEEE7FF7FFFFF10B50B005142514121
:104FF00047324900D2B2FFF774FF10BD10B50B0065
:105000004B220121FFF76DFF10BD10B50B004A22A6
:1050100000210400FFF765FF0123A37110BD00000C
:10502000E823F7B5224A5B00D35805000191022B13
:1050300029D88769B94226D9C36A4269CF1B9C1A0D
:10504000062F01D90F2C1FD900941F2C01D91F2323
:105050000093009B0026A34203D33E00032F00D9F8
:10506000032601212800FFF7F9FD009A730113437D
:105070000370009BBF1BE41A23003B43E0D1EB6AA3
:105080006B61019BAB61F7BD80233E001B019F421A
:1050900000D3084E02212800FFF7E0FD70223309FB
:1050A00013402343F03A1343037046700094E0E743
:1050B00020850320FF07000010B50400002905D15A
:1050C000552201392000FFF7EFFD10BD022904D160
:1050D000FFF7F5FD2000FFF717FE03215622494296
:1050E000F0E7130010B54322002900D1442201212A
:1050F0004942FFF7F6FE10BD130010B54522002906
:1051000000D1462201214942FFF7EBFE10BD70B5E8
:105110000400322913D00025332901D101352C395F
:105120002939CAB2012120004942FFF7BDFD002DF7
:1051300004D0D32200212000FFF7B6FD70BD012569
:105140000621EDE770B50D000400111E05D12B00FE
:1051500013222000FFF72EFE70BD022A04D1FFF7B4
:10516000AEFD2000FFF7CAFD02212B0018224942A4
:10517000EFE710B51C000B69224304D10121323244
:10518000FFF752FE10BD012133224942F8E770B506
:10519000040018000B690499D5B208430AD1012113
:1051A000891A20222000FFF73FFE29002000FFF788
:1051B00074FD70BDD1432122F4E7110010B5002B1E
:1051C00007D10F2A05D8503A0121D2B2FFF76CFD62
:1051D00010BD2433DAB20B000121FFF7DDFDF7E744
:1051E000110010B5002B08D10F2A06D80121403A32
:1051F000D2B24942FFF758FD10BD2633DAB20B0098
:1052000001214942FFF7C8FDF6E770B5049DD2B20F
:105210006C002D02E4182B43059D002D02D00132B5
:10522000D2B20134091BFFF7B7FD70BD07B501937A
:1052300000920B0034220021FFF7E7FF07BD13B5F2
:105240000124019300920B0036226142FFF7DDFF3B
:1052500013BD000010B504000E290AD10849C0682A
:1052600000F0F1F92322030001212000FFF794FD53
:1052700010BD4131CAB20121FFF716FDF8E7C04663
:10528000CC74031070B504000D001021FFF7E2FF8D
:1052900029002000FFF7C2FC5C2220000221FFF75A
:1052A00003FD042120004942FFF7ACFC70BD0B0058
:1052B0001033F7B506000D003F2B06D80A00803AE0
:1052C0000121D2B2FFF7F0FCF7BD01212222FFF746
:1052D000EBFC6B465C1D21007F202F002200074065
:1052E000EBB2013CED1127706F1C012FF5D8402760
:1052F0003B40013514D1002B02D1013C2070941E9B
:105300003000091BFFF7B6FC80260200230001AD28
:105310007642AB420AD16A4612791C1B0255D3E78A
:10532000002BEDD00023013C2370E8E7197801330E
:10533000314311700132ECE710B50400C06800F091
:1053400082F92322030001212000FFF725FD10BD73
:1053500070B543790400012B01D1012033E0002511
:10536000C26B436A05649B1AC3632069038D9D4227
:105370000BD36379032B19D1606AE36AA0622363BC
:10538000C01804F004FA6063E7E7C26AEB00D118C2
:10539000D35C052B08D18E7820000121FFF75EFC3D
:1053A0000670236C013323640135DEE7042BD4D16E
:1053B000626AA16AE36A8A4202D1216B994203D0F0
:1053C0000020A262236370BD230038331B78002BBA
:1053D00003D00649064811F013FDE268C38A5268FB
:1053E000616B006900F087F9B7E7C046A43C031081
:1053F000DC640310F0B5417187B001000023019215
:10540000026101223831836083714361C362436268
:1054100082610B70019B06001F8C5B8CFF18002FB4
:1054200000D11700019B013F998CDA8A0F231A40A3
:10543000019B03925D8B9B8B78220493019B8C00D4
:10544000DB8B059304231C40013B2B401C43FB00DA
:1054500013401C434B083F090293AD08029B039A7B
:105460003B431343049A2B431343059A0121300015
:10547000134337D1FFF7F2FB04707379022B17D96E
:10548000F56B376C7E236C001C407D3B3B407F08F6
:105490001C433B00AD092B43029301D080231C43E6
:1054A00001213000FFF7DAFB029B0470002BE9D1E9
:1054B000736AF068F363019B0024998A00F0ACF8EA
:1054C0002E4D020029003000FBF724FB0127019B31
:1054D000019A5B8B928B9B18A3424DDD019B0022AE
:1054E000198D45E0FFF7BAFB80235B421C43039B09
:1054F00004709C01402330221C403B0113401C439C
:105500000123059A134008221C43049BDB0013402F
:105510001C43043AAB0013401C43029B023A5B005D
:1055200013401C43029BD7405B080293039B6D080A
:105530005B080393049B5B080493059B5B0805933E
:105540008CE70198D300C06A0290C318587838429B
:105550000DD05888A0420AD15968F06800F05CF874
:10556000290002003000FBF7D5FA0134AFE7013221
:105570009142E6DC0521F0E707B0F0BD5D4C00107C
:1055800010B50400442004F002F9C46010BD10B549
:105590000400C161880004F0DBF8206210BD10B582
:1055A0000400006A04F008F9200004F005F910BDB9
:1055B000F8B504000D00884201D10120F8BD144B5C
:1055C000984201D10020F9E79942FBD007F0B4FDE1
:1055D0000600280007F0B0FD8642F3D10D4B9E4235
:1055E00011D163686A689342ECD10826002763688A
:1055F000BB42E2D9A959A059FFF7DAFF04360028C7
:10560000E0D00137F3E72900200008F045F8D5E79E
:1056100090560310DC7E0310CB00022110B5194315
:1056200004000122083004F001F94368002B06D180
:105630000122A368DB08013B5B0013434360406821
:10564000401080B210BD70B505000E000024EB695B
:10565000A34208D82800310014300BF0D7F9EC69C8
:10566000013C200070BD2A6AA30031009858FFF762
:105670009FFF0028F5D10134E9E710B501220400AD
:1056800012F017FD0378012B04D12378012B02D9E6
:105690000423037010BD0223FBE770B505000E0064
:1056A000100019001C0012F0F4FC03785A1E012AA5
:1056B00005D80022736821002800984770BD032B8D
:1056C00002D101227368F6E736684288042B04D1C0
:1056D000002321002800B047F0E70123F9E710B5C7
:1056E000102004F054F80722037893431A00012392
:1056F0001343037010BD10B57F241C400223E40047
:1057000023430488A40AA4022343038041608260E7
:1057100010BD4260FE22009B92008360019BDB0073
:105720001340072211401943029B02689B020B435E
:10573000DB02520D5205DB0A13430360039BC36077
:105740007047000070B5040023780D005B0710005F
:1057500061685B0F042B0BD8022B0BD9A3682A00BE
:105760000AF05CFA23881B0713D50A4B036010E08C
:10577000052B08D0A3682A000AF01EFA23881B070D
:1057800007D5054BF2E72368E268D802400D0AF01E
:105790004DFA70BD586B03101C6B031070B51D00E3
:1057A000802314005B001A401C4200D02A00FFF73F
:1057B000C9FF0223E2091A409A40E1B2AA1808F090
:1057C00037FD70BD70B5038CC46A032B03D1002371
:1057D000856A9D4205D18B00E250FAF7A4FE0120B4
:1057E00070BD9E00A659964201D00133F1E700201A
:1057F000F6E710B5FAF7EEFE10BD8BB270B50500F6
:105800000C0003844262032B05D1836A0021C06A25
:105810009A002BF02DF9043C6142614128000131CE
:10582000FAF759FE28000021FAF7A8FE70BD000023
:105830000F2370B513400400022B09D00A00104852
:10584000104909F037FD0025636A1860280070BD13
:105850000025836A1209AB420AD1238C0025042B50
:10586000F4D10949064809F025FD636A1860EDE79F
:10587000E06AA90009589142E8D00135EBE7C0463B
:10588000906503108C3D0310A13D0310F7B51F0078
:105890000F2305000E001C4C1340022B03D11009EE
:1058A00010F051FE04002378184A01930023517828
:1058B000019881421DD161788C4691788C4518D130
:1058C000A1788C46D178614513D100290ED10F4AB9
:1058D0009B00D05CB84208D93B0032000C490D480F
:1058E00009F0E8FC6B6A18600020FEBDE178002931
:1058F000EDD001330432152BD9D1320006490548C9
:1059000009F0D8FCEEE7C04663DE0310B43F031095
:10591000B83D031090650310D13D0310F0B50400AD
:105920000D0085B0002A47D00320024244D1FF2158
:1059300053680B402F2B3FD19268203B16001E402E
:10594000022E08D129002000FFF7A0FF0127874081
:10595000380005B0F0BD002A2ED016000640019692
:10596000024229D1506808409F2825D1D668706826
:105970000140A12920D1290092682000FFF786FF6D
:10598000012787403000A221083003AA2DF0C0FC77
:105990000123019E00900193009B9E42D8DA039957
:1059A000B2000F23525820002900FFF76FFF019B20
:1059B000013683401F43EFE72A000449044809F0F9
:1059C00079FC636A00271860C2E7C046E93D03100E
:1059D00090650310F0B585B004000D00100003A918
:1059E0001E002DF055FC002809D12A000B490C4857
:1059F00009F060FC636A1860002005B0F0BD0398F0
:105A000007F044FC0300B343F7D003002A00054924
:105A10000096034809F04EFCECE7C046043E031034
:105A2000906503101C3E0310F0B50E0085B0040015
:105A300003A930001F00009210F08FFD009B0500AD
:105A4000002B0ED1964B9E4205D1BF2109022000AA
:105A5000FAF789FDC6E0934B9E4200D0FAE09249E6
:105A6000F5E7009B012B00D09EE0A023FF339E4270
:105A700012D101003A682000FFF7DAFE0100200091
:105A8000FAF772FE002800D0ACE088498848646AC2
:105A900009F086FB2060A5E0A623FF339E4209D1D2
:105AA00001003A682000FFF7C3FE01002000FAF76A
:105AB0009AFEE7E7D6235B009E420BD19E3B010096
:105AC0003A682000FF3BFFF7E1FE8E21C000C901CC
:105AD0000143BCE70378622B32D1039B032B07D031
